{
  "contractName": "Remittance",
  "abi": [
    {
      "constant": false,
      "inputs": [],
      "name": "unpause",
      "outputs": [],
      "payable": false,
      "stateMutability": "nonpayable",
      "type": "function"
    },
    {
      "constant": true,
      "inputs": [],
      "name": "paused",
      "outputs": [
        {
          "name": "",
          "type": "bool"
        }
      ],
      "payable": false,
      "stateMutability": "view",
      "type": "function"
    },
    {
      "constant": true,
      "inputs": [
        {
          "name": "",
          "type": "bytes32"
        }
      ],
      "name": "transactions",
      "outputs": [
        {
          "name": "ethFunds",
          "type": "uint256"
        },
        {
          "name": "puzzle",
          "type": "bytes32"
        },
        {
          "name": "sender",
          "type": "address"
        },
        {
          "name": "receiver",
          "type": "address"
        },
        {
          "name": "expiresOn",
          "type": "uint256"
        },
        {
          "name": "processed",
          "type": "bool"
        },
        {
          "name": "returnFunds",
          "type": "uint256"
        }
      ],
      "payable": false,
      "stateMutability": "view",
      "type": "function"
    },
    {
      "constant": false,
      "inputs": [],
      "name": "renounceOwnership",
      "outputs": [],
      "payable": false,
      "stateMutability": "nonpayable",
      "type": "function"
    },
    {
      "constant": false,
      "inputs": [],
      "name": "pause",
      "outputs": [],
      "payable": false,
      "stateMutability": "nonpayable",
      "type": "function"
    },
    {
      "constant": true,
      "inputs": [],
      "name": "owner",
      "outputs": [
        {
          "name": "",
          "type": "address"
        }
      ],
      "payable": false,
      "stateMutability": "view",
      "type": "function"
    },
    {
      "constant": false,
      "inputs": [
        {
          "name": "_newOwner",
          "type": "address"
        }
      ],
      "name": "transferOwnership",
      "outputs": [],
      "payable": false,
      "stateMutability": "nonpayable",
      "type": "function"
    },
    {
      "inputs": [],
      "payable": false,
      "stateMutability": "nonpayable",
      "type": "constructor"
    },
    {
      "anonymous": false,
      "inputs": [
        {
          "indexed": true,
          "name": "initiator",
          "type": "address"
        },
        {
          "indexed": false,
          "name": "receiver",
          "type": "address"
        },
        {
          "indexed": false,
          "name": "amount",
          "type": "uint256"
        },
        {
          "indexed": false,
          "name": "paymentID",
          "type": "bytes32"
        },
        {
          "indexed": false,
          "name": "expireson",
          "type": "uint256"
        }
      ],
      "name": "LogSendRemitance",
      "type": "event"
    },
    {
      "anonymous": false,
      "inputs": [
        {
          "indexed": true,
          "name": "initiator",
          "type": "address"
        },
        {
          "indexed": false,
          "name": "amount",
          "type": "uint256"
        }
      ],
      "name": "LogClaimRemittance",
      "type": "event"
    },
    {
      "anonymous": false,
      "inputs": [],
      "name": "Pause",
      "type": "event"
    },
    {
      "anonymous": false,
      "inputs": [],
      "name": "Unpause",
      "type": "event"
    },
    {
      "anonymous": false,
      "inputs": [
        {
          "indexed": true,
          "name": "previousOwner",
          "type": "address"
        }
      ],
      "name": "OwnershipRenounced",
      "type": "event"
    },
    {
      "anonymous": false,
      "inputs": [
        {
          "indexed": true,
          "name": "previousOwner",
          "type": "address"
        },
        {
          "indexed": true,
          "name": "newOwner",
          "type": "address"
        }
      ],
      "name": "OwnershipTransferred",
      "type": "event"
    },
    {
      "constant": false,
      "inputs": [
        {
          "name": "pass",
          "type": "bytes32"
        },
        {
          "name": "receiver",
          "type": "address"
        },
        {
          "name": "payID",
          "type": "bytes32"
        }
      ],
      "name": "sendRemitance",
      "outputs": [
        {
          "name": "success",
          "type": "bool"
        }
      ],
      "payable": true,
      "stateMutability": "payable",
      "type": "function"
    },
    {
      "constant": false,
      "inputs": [
        {
          "name": "pass",
          "type": "bytes32"
        },
        {
          "name": "payID",
          "type": "bytes32"
        }
      ],
      "name": "claimRemittance",
      "outputs": [
        {
          "name": "success",
          "type": "bool"
        }
      ],
      "payable": false,
      "stateMutability": "nonpayable",
      "type": "function"
    },
    {
      "constant": false,
      "inputs": [
        {
          "name": "pass",
          "type": "bytes32"
        },
        {
          "name": "receiver",
          "type": "address"
        },
        {
          "name": "payID",
          "type": "bytes32"
        }
      ],
      "name": "claimReturns",
      "outputs": [
        {
          "name": "success",
          "type": "bool"
        }
      ],
      "payable": false,
      "stateMutability": "nonpayable",
      "type": "function"
    },
    {
      "constant": true,
      "inputs": [
        {
          "name": "receiver",
          "type": "address"
        },
        {
          "name": "hashedPass",
          "type": "bytes32"
        }
      ],
      "name": "hashHelper",
      "outputs": [
        {
          "name": "puzzle",
          "type": "bytes32"
        }
      ],
      "payable": false,
      "stateMutability": "pure",
      "type": "function"
    }
  ],
  "bytecode": "0x608060405260008060146101000a81548160ff02191690831515021790555034801561002a57600080fd5b50336000806101000a81548173ffffffffffffffffffffffffffffffffffffffff021916908373ffffffffffffffffffffffffffffffffffffffff1602179055506117e48061007a6000396000f3006080604052600436106100af576000357c0100000000000000000000000000000000000000000000000000000000900463ffffffff16806309cc1c6d146100b45780633f4ba83a1461012157806349e779fa146101385780635c975abb1461018f578063642f2eaf146101be578063715018a6146102915780638456cb59146102a85780638da5cb5b146102bf5780639801bc3d14610316578063e779dcf61461038d578063f2fde38b146103f7575b600080fd5b3480156100c057600080fd5b50610103600480360381019080803573ffffffffffffffffffffffffffffffffffffffff169060200190929190803560001916906020019092919050505061043a565b60405180826000191660001916815260200191505060405180910390f35b34801561012d57600080fd5b50610136610511565b005b34801561014457600080fd5b50610175600480360381019080803560001916906020019092919080356000191690602001909291905050506105cf565b604051808215151515815260200191505060405180910390f35b34801561019b57600080fd5b506101a4610ba2565b604051808215151515815260200191505060405180910390f35b3480156101ca57600080fd5b506101ed6004803603810190808035600019169060200190929190505050610bb5565b6040518088815260200187600019166000191681526020018673ffffffffffffffffffffffffffffffffffffffff1673ffffffffffffffffffffffffffffffffffffffff1681526020018573ffffffffffffffffffffffffffffffffffffffff1673ffffffffffffffffffffffffffffffffffffffff1681526020018481526020018315151515815260200182815260200197505050505050505060405180910390f35b34801561029d57600080fd5b506102a6610c44565b005b3480156102b457600080fd5b506102bd610d46565b005b3480156102cb57600080fd5b506102d4610e06565b604051808273ffffffffffffffffffffffffffffffffffffffff1673ffffffffffffffffffffffffffffffffffffffff16815260200191505060405180910390f35b34801561032257600080fd5b506103736004803603810190808035600019169060200190929190803573ffffffffffffffffffffffffffffffffffffffff1690602001909291908035600019169060200190929190505050610e2b565b604051808215151515815260200191505060405180910390f35b6103dd6004803603810190808035600019169060200190929190803573ffffffffffffffffffffffffffffffffffffffff16906020019092919080356000191690602001909291905050506111a1565b604051808215151515815260200191505060405180910390f35b34801561040357600080fd5b50610438600480360381019080803573ffffffffffffffffffffffffffffffffffffffff169060200190929190505050611657565b005b60008282604051602001808373ffffffffffffffffffffffffffffffffffffffff1673ffffffffffffffffffffffffffffffffffffffff166c010000000000000000000000000281526014018260001916600019168152602001925050506040516020818303038152906040526040518082805190602001908083835b6020831015156104dc57805182526020820191506020810190506020830392506104b7565b6001836020036101000a0380198251168184511680821785525050505050509050019150506040518091039020905092915050565b6000809054906101000a900473ffffffffffffffffffffffffffffffffffffffff1673ffffffffffffffffffffffffffffffffffffffff163373ffffffffffffffffffffffffffffffffffffffff1614151561056c57600080fd5b600060149054906101000a900460ff16151561058757600080fd5b60008060146101000a81548160ff0219169083151502179055507f7805862f689e2f13df9f062ff482ad3ad112aca9e0847911ed832e158c525b3360405160405180910390a1565b600080600080600060149054906101000a900460ff161515156105f157600080fd5b6105fb338761043a565b92503373ffffffffffffffffffffffffffffffffffffffff1660016000876000191660001916815260200190815260200160002060030160009054906101000a900473ffffffffffffffffffffffffffffffffffffffff1673ffffffffffffffffffffffffffffffffffffffff16141515610704576040517f08c379a00000000000000000000000000000000000000000000000000000000081526004018080602001828103825260248152602001807f5b45523230345d20496e76616c6964205472616e73616374696f6e205265636581526020017f697665720000000000000000000000000000000000000000000000000000000081525060400191505060405180910390fd5b6000600160008760001916600019168152602001908152602001600020600001541115156107c0576040517f08c379a00000000000000000000000000000000000000000000000000000000081526004018080602001828103825260248152602001807f5b45523230345d20496e76616c6964205472616e73616374696f6e205265636581526020017f697665720000000000000000000000000000000000000000000000000000000081525060400191505060405180910390fd5b8260001916600160008760001916600019168152602001908152602001600020600101546000191614151561085d576040517f08c379a00000000000000000000000000000000000000000000000000000000081526004018080602001828103825260188152602001807f5b45523230355d20496e76616c69642070617373776f7264000000000000000081525060200191505060405180910390fd5b60016000866000191660001916815260200190815260200160002060050160009054906101000a900460ff161515156108fe576040517f08c379a000000000000000000000000000000000000000000000000000000000815260040180806020018281038252601a8152602001807f5b45523230345d20496e766c6961642054726e73616374696f6e00000000000081525060200191505060405180910390fd5b600060016000876000191660001916815260200190815260200160002060060154141515610994576040517f08c379a000000000000000000000000000000000000000000000000000000000815260040180806020018281038252601d8152602001807f5b45523230395d20537573706563746564205472616e73616374696f6e00000081525060200191505060405180910390fd5b6241eb004201915081600160008760001916600019168152602001908152602001600020600401541115610a665760016000866000191660001916815260200190815260200160002060000154600160008760001916600019168152602001908152602001600020600601819055506000600160008760001916600019168152602001908152602001600020600001819055506001806000876000191660001916815260200190815260200160002060050160006101000a81548160ff02191690831515021790555060009350610b99565b6001600086600019166000191681526020019081526020016000206000015490506000600160008760001916600019168152602001908152602001600020600001819055506001806000876000191660001916815260200190815260200160002060050160006101000a81548160ff0219169083151502179055503373ffffffffffffffffffffffffffffffffffffffff167f012c361359d52d5c7626a19fd8bb75404e5562e3cf818f3ef44fa415784d03fa600160008860001916600019168152602001908152602001600020600001546040518082815260200191505060405180910390a23373ffffffffffffffffffffffffffffffffffffffff166108fc829081150290604051600060405180830381858888f19350505050158015610b93573d6000803e3d6000fd5b50600193505b50505092915050565b600060149054906101000a900460ff1681565b60016020528060005260406000206000915090508060000154908060010154908060020160009054906101000a900473ffffffffffffffffffffffffffffffffffffffff16908060030160009054906101000a900473ffffffffffffffffffffffffffffffffffffffff16908060040154908060050160009054906101000a900460ff16908060060154905087565b6000809054906101000a900473ffffffffffffffffffffffffffffffffffffffff1673ffffffffffffffffffffffffffffffffffffffff163373ffffffffffffffffffffffffffffffffffffffff16141515610c9f57600080fd5b6000809054906101000a900473ffffffffffffffffffffffffffffffffffffffff1673ffffffffffffffffffffffffffffffffffffffff167ff8df31144d9c2f0f6b59d69b8b98abd5459d07f2742c4df920b25aae33c6482060405160405180910390a260008060006101000a81548173ffffffffffffffffffffffffffffffffffffffff021916908373ffffffffffffffffffffffffffffffffffffffff160217905550565b6000809054906101000a900473ffffffffffffffffffffffffffffffffffffffff1673ffffffffffffffffffffffffffffffffffffffff163373ffffffffffffffffffffffffffffffffffffffff16141515610da157600080fd5b600060149054906101000a900460ff16151515610dbd57600080fd5b6001600060146101000a81548160ff0219169083151502179055507f6985a02210a168e66602d3235cb6db0e70f92b3ba4d376a33c0f3d9434bff62560405160405180910390a1565b6000809054906101000a900473ffffffffffffffffffffffffffffffffffffffff1681565b600080600060149054906101000a900460ff16151515610e4a57600080fd5b610e54848661043a565b90503373ffffffffffffffffffffffffffffffffffffffff1660016000856000191660001916815260200190815260200160002060020160009054906101000a900473ffffffffffffffffffffffffffffffffffffffff1673ffffffffffffffffffffffffffffffffffffffff16141515610f37576040517f08c379a00000000000000000000000000000000000000000000000000000000081526004018080602001828103825260208152602001807f5b45523230365d20496e76616c6964206164647265737320726563656976656481525060200191505060405180910390fd5b80600019166001600085600019166000191681526020019081526020016000206001015460001916141515610fd4576040517f08c379a00000000000000000000000000000000000000000000000000000000081526004018080602001828103825260188152602001807f5b45523230355d20496e76616c69642070617373776f7264000000000000000081525060200191505060405180910390fd5b60016000846000191660001916815260200190815260200160002060050160009054906101000a900460ff16151561109a576040517f08c379a00000000000000000000000000000000000000000000000000000000081526004018080602001828103825260248152602001807f5b45523230375d205472616e73616374696f6e20697320756e6465722070726f81526020017f636573730000000000000000000000000000000000000000000000000000000081525060400191505060405180910390fd5b600060016000856000191660001916815260200190815260200160002060060154111515611130576040517f08c379a00000000000000000000000000000000000000000000000000000000081526004018080602001828103825260198152602001807f5b45523230385d204e6f7468696e6720746f2072657475726e0000000000000081525060200191505060405180910390fd5b3373ffffffffffffffffffffffffffffffffffffffff166108fc600160008660001916600019168152602001908152602001600020600601549081150290604051600060405180830381858888f19350505050158015611194573d6000803e3d6000fd5b5060019150509392505050565b60008060008060149054906101000a900460ff161515156111c157600080fd5b600034111515611239576040517f08c379a000000000000000000000000000000000000000000000000000000000815260040180806020018281038252601b8152602001807f5b45523230315d20496e766c6169642045746865722076616c7565000000000081525060200191505060405180910390fd5b8473ffffffffffffffffffffffffffffffffffffffff163373ffffffffffffffffffffffffffffffffffffffff1614151515611303576040517f08c379a00000000000000000000000000000000000000000000000000000000081526004018080602001828103825260288152602001807f5b45523230335d2052656d69747465722063616e206e6f74206265207468652081526020017f726563656976657200000000000000000000000000000000000000000000000081525060400191505060405180910390fd5b61130d858761043a565b91506000600160008660001916600019168152602001908152602001600020600001541415156113a5576040517f08c379a000000000000000000000000000000000000000000000000000000000815260040180806020018281038252601b8152602001807f5b45523230325d20496e76616c6964207472616e73616374696f6e000000000081525060200191505060405180910390fd5b60016000856000191660001916815260200190815260200160002060050160009054906101000a900460ff16151515611446576040517f08c379a000000000000000000000000000000000000000000000000000000000815260040180806020018281038252601a8152602001807f5b45523230345d20496e766c6961642054726e73616374696f6e00000000000081525060200191505060405180910390fd5b6241eb004201905060e060405190810160405280348152602001836000191681526020013373ffffffffffffffffffffffffffffffffffffffff1681526020018673ffffffffffffffffffffffffffffffffffffffff1681526020018281526020016000151581526020016000815250600160008660001916600019168152602001908152602001600020600082015181600001556020820151816001019060001916905560408201518160020160006101000a81548173ffffffffffffffffffffffffffffffffffffffff021916908373ffffffffffffffffffffffffffffffffffffffff16021790555060608201518160030160006101000a81548173ffffffffffffffffffffffffffffffffffffffff021916908373ffffffffffffffffffffffffffffffffffffffff1602179055506080820151816004015560a08201518160050160006101000a81548160ff02191690831515021790555060c082015181600601559050503373ffffffffffffffffffffffffffffffffffffffff167f0c175a7a01d1d37c37a7f759917e0ece4b5b6474f2a165afa5a8a9ba20bb7ce186348785604051808573ffffffffffffffffffffffffffffffffffffffff1673ffffffffffffffffffffffffffffffffffffffff168152602001848152602001836000191660001916815260200182815260200194505050505060405180910390a26001925050509392505050565b6000809054906101000a900473ffffffffffffffffffffffffffffffffffffffff1673ffffffffffffffffffffffffffffffffffffffff163373ffffffffffffffffffffffffffffffffffffffff161415156116b257600080fd5b6116bb816116be565b50565b600073ffffffffffffffffffffffffffffffffffffffff168173ffffffffffffffffffffffffffffffffffffffff16141515156116fa57600080fd5b8073ffffffffffffffffffffffffffffffffffffffff166000809054906101000a900473ffffffffffffffffffffffffffffffffffffffff1673ffffffffffffffffffffffffffffffffffffffff167f8be0079c531659141344cd1fd0a4f28419497f9722a3daafe3b4186f6b6457e060405160405180910390a3806000806101000a81548173ffffffffffffffffffffffffffffffffffffffff021916908373ffffffffffffffffffffffffffffffffffffffff160217905550505600a165627a7a7230582018634549c63c1a21307c5af30d0f8f7ade3d70e8291d4d7cb64eaa5fcba6d3200029",
  "source": "pragma solidity ^0.4.23;\r\n\r\nimport \"zeppelin-solidity/contracts/math/SafeMath.sol\";\r\nimport \"zeppelin-solidity/contracts/lifecycle/Pausable.sol\";\r\n\r\n\r\n/**\r\n * @title Contract for exchanging transactions from ether to \r\n *        local currency.\r\n **/\r\ncontract Remittance is Pausable {\r\n    using SafeMath for uint256;\r\n    \r\n    event LogSendRemitance(address indexed initiator, address receiver, uint amount, bytes32 paymentID, uint expireson);\r\n    event LogClaimRemittance(address indexed initiator, uint amount );\r\n\r\n    \r\n    struct Transaction{\r\n        uint ethFunds; // Ether funds\r\n        bytes32 puzzle; // keccak256 of the puzzle. Do i need this if i am keying with puzzle\r\n        address sender; // sender address\r\n        address receiver; // receiver address\r\n        uint expiresOn; // expires on\r\n        bool processed; // Processed\r\n        uint returnFunds; // Returned funds\r\n    }\r\n    \r\n    mapping(bytes32 => Transaction ) public transactions;\r\n    \r\n    /**\r\n     * Constructor for instantiating the contract\r\n     */\r\n    constructor() public{        \r\n    }\r\n    \r\n    /**\r\n     * @dev Function for creating a remittance ccontract\r\n     * @param pass      Password comign off-chain\r\n     * @param receiver  Address of the receiver\r\n     * @param payID     Payment ID, should be calculated off-chain\r\n     */\r\n    function sendRemitance(bytes32 pass, address receiver, bytes32 payID) payable public whenNotPaused returns(bool success){\r\n        require(msg.value > 0, \"[ER201] Invlaid Ether value\");\r\n        require(msg.sender != receiver, \"[ER203] Remitter can not be the receiver\");\r\n        bytes32 hashedPass = hashHelper(receiver,pass);\r\n        require(transactions[payID].ethFunds == 0, \"[ER202] Invalid transaction\"); // same password already used\r\n        require(!transactions[payID].processed,\"[ER204] Invliad Trnsaction\");\r\n        uint expiresOn = block.timestamp + 50 days; // Transaction is valid till 50 days\r\n        transactions[payID] = Transaction(msg.value, hashedPass,msg.sender, receiver, expiresOn, false,0);\r\n        emit LogSendRemitance(msg.sender, receiver,msg.value, payID,expiresOn);\r\n        return true;\r\n    }\r\n    \r\n    /**\r\n     * @dev Procedure for claiming remittance\r\n     * @param pass  Hashed password coming from off-chain\r\n     * @param payID Payment iD should be calculated off-chain\r\n     **/\r\n    function claimRemittance(bytes32 pass,bytes32 payID) public whenNotPaused returns(bool success){\r\n        bytes32 hashedPass = hashHelper(msg.sender,pass); // Explicitly generating the puzzle\r\n        require(transactions[payID].receiver == msg.sender, \"[ER204] Invalid Transaction Receiver\");\r\n        require(transactions[payID].ethFunds > 0, \"[ER204] Invalid Transaction Receiver\");\r\n        require(transactions[payID].puzzle == hashedPass, \"[ER205] Invalid password\");\r\n        require(!transactions[payID].processed,\"[ER204] Invliad Trnsaction\");\r\n        require(transactions[payID].returnFunds == 0, \"[ER209] Suspected Transaction\");\r\n        uint expiresOn = block.timestamp + 50 days; \r\n        if(transactions[payID].expiresOn > expiresOn ){\r\n            transactions[payID].returnFunds = transactions[payID].ethFunds;\r\n            transactions[payID].ethFunds = 0;\r\n            transactions[payID].processed = true;\r\n            return false;\r\n        }else{\r\n            uint fundsToTransfer = transactions[payID].ethFunds;\r\n            /* Rather than deleting the structure, we will keep the reference */\r\n            transactions[payID].ethFunds = 0;\r\n            transactions[payID].processed = true;\r\n            emit LogClaimRemittance(msg.sender, transactions[payID].ethFunds);\r\n            msg.sender.transfer(fundsToTransfer);                  \r\n            return true;\r\n        }\r\n    }\r\n    \r\n    \r\n    /**\r\n     * @dev Procedure for returning funds to the sende in-case it is expired\r\n     * @param pass      password of the transactions\r\n     * @param payID     payment ID\r\n     * @param receiver  Address of the receiver\r\n     **/\r\n    function claimReturns(bytes32 pass, address receiver, bytes32 payID) public whenNotPaused returns(bool success){\r\n        bytes32 hashedPass = hashHelper(receiver,pass); // Explicitly generating the puzzle\r\n        require(transactions[payID].sender == msg.sender, \"[ER206] Invalid address received\");\r\n        require(transactions[payID].puzzle == hashedPass, \"[ER205] Invalid password\");\r\n        require(transactions[payID].processed,\"[ER207] Transaction is under process\");\r\n        require(transactions[payID].returnFunds > 0, \"[ER208] Nothing to return\");\r\n        msg.sender.transfer(transactions[payID].returnFunds);                  \r\n        return true;\r\n    }\r\n    \r\n    /**\r\n     * Function for encoding puzzle sent\r\n     **/\r\n    function hashHelper(address receiver, bytes32 hashedPass) public pure returns(bytes32 puzzle){\r\n        return keccak256(abi.encodePacked(receiver,hashedPass));\r\n    }\r\n    \r\n    \r\n}",
  "sourcePath": "/mnt/hgfs/Ethereum/Challenges/Remittance/contracts/Remittance.sol",
  "compiler": {
    "name": "solc",
    "version": "0.4.24+commit.e67f0147.Emscripten.clang"
  },
  "schemaVersion": "2.0.1",
  "updatedAt": "2018-07-13T16:40:12.616Z"
}