{
  "contractName": "Remittance",
  "abi": [
    {
      "constant": true,
      "inputs": [],
      "name": "paused",
      "outputs": [
        {
          "name": "",
          "type": "bool"
        }
      ],
      "payable": false,
      "stateMutability": "view",
      "type": "function"
    },
    {
      "constant": true,
      "inputs": [
        {
          "name": "",
          "type": "bytes32"
        }
      ],
      "name": "transactions",
      "outputs": [
        {
          "name": "ethFunds",
          "type": "uint256"
        },
        {
          "name": "puzzle",
          "type": "bytes32"
        },
        {
          "name": "sender",
          "type": "address"
        },
        {
          "name": "processed",
          "type": "bool"
        },
        {
          "name": "existFlag",
          "type": "uint8"
        }
      ],
      "payable": false,
      "stateMutability": "view",
      "type": "function"
    },
    {
      "constant": true,
      "inputs": [],
      "name": "owner",
      "outputs": [
        {
          "name": "",
          "type": "address"
        }
      ],
      "payable": false,
      "stateMutability": "view",
      "type": "function"
    },
    {
      "inputs": [],
      "payable": false,
      "stateMutability": "nonpayable",
      "type": "constructor"
    },
    {
      "anonymous": false,
      "inputs": [],
      "name": "LogPause",
      "type": "event"
    },
    {
      "anonymous": false,
      "inputs": [],
      "name": "LogUnPause",
      "type": "event"
    },
    {
      "constant": false,
      "inputs": [
        {
          "name": "otp1",
          "type": "bytes32"
        },
        {
          "name": "otp2",
          "type": "bytes32"
        },
        {
          "name": "receiver",
          "type": "address"
        }
      ],
      "name": "createRmittance",
      "outputs": [
        {
          "name": "puzz",
          "type": "bytes32"
        }
      ],
      "payable": true,
      "stateMutability": "payable",
      "type": "function"
    },
    {
      "constant": false,
      "inputs": [
        {
          "name": "otp1",
          "type": "bytes32"
        },
        {
          "name": "otp2",
          "type": "bytes32"
        },
        {
          "name": "sender",
          "type": "address"
        }
      ],
      "name": "authorizeTransaction",
      "outputs": [
        {
          "name": "puzz",
          "type": "bytes32"
        }
      ],
      "payable": false,
      "stateMutability": "nonpayable",
      "type": "function"
    },
    {
      "constant": false,
      "inputs": [],
      "name": "pause",
      "outputs": [],
      "payable": false,
      "stateMutability": "nonpayable",
      "type": "function"
    },
    {
      "constant": false,
      "inputs": [],
      "name": "unpause",
      "outputs": [],
      "payable": false,
      "stateMutability": "nonpayable",
      "type": "function"
    }
  ],
  "bytecode": "0x608060405260008060146101000a81548160ff02191690831515021790555034801561002a57600080fd5b50336000806101000a81548173ffffffffffffffffffffffffffffffffffffffff021916908373ffffffffffffffffffffffffffffffffffffffff160217905550610b298061007a6000396000f300608060405260043610610083576000357c0100000000000000000000000000000000000000000000000000000000900463ffffffff168063336b8206146100885780633f4ba83a146101035780635c975abb1461011a578063642f2eaf146101495780636b047435146101e85780638456cb59146102565780638da5cb5b1461026d575b600080fd5b34801561009457600080fd5b506100e560048036038101908080356000191690602001909291908035600019169060200190929190803573ffffffffffffffffffffffffffffffffffffffff1690602001909291905050506102c4565b60405180826000191660001916815260200191505060405180910390f35b34801561010f57600080fd5b50610118610406565b005b34801561012657600080fd5b5061012f610596565b604051808215151515815260200191505060405180910390f35b34801561015557600080fd5b5061017860048036038101908080356000191690602001909291905050506105a9565b6040518086815260200185600019166000191681526020018473ffffffffffffffffffffffffffffffffffffffff1673ffffffffffffffffffffffffffffffffffffffff168152602001831515151581526020018260ff1660ff1681526020019550505050505060405180910390f35b61023860048036038101908080356000191690602001909291908035600019169060200190929190803573ffffffffffffffffffffffffffffffffffffffff169060200190929190505050610619565b60405180826000191660001916815260200191505060405180910390f35b34801561026257600080fd5b5061026b610946565b005b34801561027957600080fd5b50610282610ad8565b604051808273ffffffffffffffffffffffffffffffffffffffff1673ffffffffffffffffffffffffffffffffffffffff16815260200191505060405180910390f35b600080600060149054906101000a900460ff1615151561034c576040517f08c379a000000000000000000000000000000000000000000000000000000000815260040180806020018281038252601a8152602001807f5b45523130325d20436f6e74726163742069732070617573656400000000000081525060200191505060405180910390fd5b600073ffffffffffffffffffffffffffffffffffffffff168373ffffffffffffffffffffffffffffffffffffffff161415151561038857600080fd5b338585604051808473ffffffffffffffffffffffffffffffffffffffff1673ffffffffffffffffffffffffffffffffffffffff166c0100000000000000000000000002815260140183600019166000191681526020018260001916600019168152602001935050505060405180910390209050809150509392505050565b6000809054906101000a900473ffffffffffffffffffffffffffffffffffffffff1673ffffffffffffffffffffffffffffffffffffffff163373ffffffffffffffffffffffffffffffffffffffff161415156104ca576040517f08c379a000000000000000000000000000000000000000000000000000000000815260040180806020018281038252601d8152602001807f5b45523130315d20496e76616c6964206f776e6572206164647265737300000081525060200191505060405180910390fd5b600060149054906101000a900460ff16151561054e576040517f08c379a000000000000000000000000000000000000000000000000000000000815260040180806020018281038252601e8152602001807f5b45523130335d20436f6e7472616374206973206e6f7420706175736564000081525060200191505060405180910390fd5b60008060146101000a81548160ff0219169083151502179055507fb5c8924e58599edc3ba8e499a17ad57f232f019e34d42385a4d3f60d89a5aacb60405160405180910390a1565b600060149054906101000a900460ff1681565b60016020528060005260406000206000915090508060000154908060010154908060020160009054906101000a900473ffffffffffffffffffffffffffffffffffffffff16908060020160149054906101000a900460ff16908060020160159054906101000a900460ff16905085565b600080600060149054906101000a900460ff161515156106a1576040517f08c379a000000000000000000000000000000000000000000000000000000000815260040180806020018281038252601a8152602001807f5b45523130325d20436f6e74726163742069732070617573656400000000000081525060200191505060405180910390fd5b600034111515610719576040517f08c379a00000000000000000000000000000000000000000000000000000000081526004018080602001828103825260158152602001807f5b45523230315d20496e766c6169642076616c7565000000000000000000000081525060200191505060405180910390fd5b338585604051808473ffffffffffffffffffffffffffffffffffffffff1673ffffffffffffffffffffffffffffffffffffffff166c01000000000000000000000000028152601401836000191660001916815260200182600019166000191681526020019350505050604051809103902090506001806000836000191660001916815260200190815260200160002060020160159054906101000a900460ff1660ff1614151515610832576040517f08c379a000000000000000000000000000000000000000000000000000000000815260040180806020018281038252601b8152602001807f5b45523230325d20496e76616c6964207472616e73616374696f6e000000000081525060200191505060405180910390fd5b60a060405190810160405280348152602001826000191681526020013373ffffffffffffffffffffffffffffffffffffffff168152602001600015158152602001600160ff16815250600160008360001916600019168152602001908152602001600020600082015181600001556020820151816001019060001916905560408201518160020160006101000a81548173ffffffffffffffffffffffffffffffffffffffff021916908373ffffffffffffffffffffffffffffffffffffffff16021790555060608201518160020160146101000a81548160ff02191690831515021790555060808201518160020160156101000a81548160ff021916908360ff160217905550905050809150509392505050565b6000809054906101000a900473ffffffffffffffffffffffffffffffffffffffff1673ffffffffffffffffffffffffffffffffffffffff163373ffffffffffffffffffffffffffffffffffffffff16141515610a0a576040517f08c379a000000000000000000000000000000000000000000000000000000000815260040180806020018281038252601d8152602001807f5b45523130315d20496e76616c6964206f776e6572206164647265737300000081525060200191505060405180910390fd5b600060149054906101000a900460ff16151515610a8f576040517f08c379a000000000000000000000000000000000000000000000000000000000815260040180806020018281038252601a8152602001807f5b45523130325d20436f6e74726163742069732070617573656400000000000081525060200191505060405180910390fd5b6001600060146101000a81548160ff0219169083151502179055507f4b314b34e912fda7f95e7d23e9c8c95f82f0aff1984e4ce592a0b005f905562460405160405180910390a1565b6000809054906101000a900473ffffffffffffffffffffffffffffffffffffffff16815600a165627a7a72305820c375092358e0d66dc55398aa4d1ade808bd3dc46fb6ad8c6defa2a11e7b604900029",
  "source": "pragma solidity ^0.4.23;\r\n\r\n\r\n/**\r\n * @title Contract for exchanging transactions from ether to \r\n *        local currency.\r\n **/\r\ncontract Remittance{\r\n    address public owner; // carol\r\n    bool public paused = false;\r\n    event LogPause();\r\n    event LogUnPause();\r\n    \r\n    struct Transaction{\r\n        uint ethFunds; // Ether funds\r\n        bytes32 puzzle; // keccak256 of the puzzle. Do i need this if i am keying with puzzle\r\n        address sender; // sender address\r\n        bool processed;\r\n        uint8 existFlag;\r\n    }\r\n    \r\n    mapping(bytes32 => Transaction ) public transactions;\r\n    \r\n     /**\r\n     * Modifier for checking if the procedure is called\r\n     * by owner \r\n     */\r\n    modifier ownerOnly{\r\n        require(msg.sender == owner, \"[ER101] Invalid owner address\");\r\n        _;\r\n    }\r\n    \r\n    /**\r\n     * Modifier to validate if contract is not paused\r\n     */\r\n    modifier whenNotPaused(){\r\n        require(!paused, \"[ER102] Contract is paused\");\r\n        _;\r\n    }\r\n\r\n    /**\r\n     * Modifier to validate if the contract is paused\r\n     */\r\n    modifier whenPaused(){\r\n        require(paused, \"[ER103] Contract is not paused\");\r\n        _;\r\n    }\r\n    \r\n    /**\r\n     * Constructor for instantiating the contract\r\n     */\r\n    constructor() public{\r\n        owner = msg.sender;\r\n    }\r\n    \r\n    /**\r\n     * Function for creating \r\n     */\r\n    function createRmittance(bytes32 otp1, bytes32 otp2, address receiver) payable public whenNotPaused returns(bytes32 puzz){\r\n        require(msg.value > 0, \"[ER201] Invlaid value\");\r\n        bytes32 puzzle = keccak256(msg.sender,otp1,otp2); // Explicitly genrating the puzzle\r\n        require(transactions[puzzle].existFlag != 1, \"[ER202] Invalid transaction\");\r\n        transactions[puzzle] = Transaction(msg.value, puzzle, msg.sender, false, 1);\r\n        return puzzle;\r\n    }\r\n    \r\n    function authorizeTransaction(bytes32 otp1, bytes32 otp2, address sender) public whenNotPaused returns(/*bool success*/bytes32 puzz){\r\n        require(sender != address(0));\r\n        bytes32 puzzle = keccak256(msg.sender,otp1,otp2); // Explicitly genrating the puzzle\r\n        /*require(transactions[puzzle].existFlag != 1, \"[ER202] Invalid transaction\");\r\n        require(!transactions[puzzle].processed,\"[ER203] Transaction processed\");\r\n        msg.sender.transfer(transactions[puzzle].ethFunds);\r\n        transactions[puzzle].processed = true;*/\r\n        // return true;\r\n        return puzzle;\r\n    }\r\n    \r\n    /**\r\n     * Procedure to pause the contract\r\n     */\r\n    function pause() ownerOnly whenNotPaused public{\r\n        paused = true;\r\n        emit LogPause();\r\n    }\r\n\r\n    /**\r\n     * Procedure to unpause the contract\r\n     */\r\n    function unpause() ownerOnly whenPaused public{\r\n        paused = false;\r\n        emit LogUnPause();\r\n    }\r\n    \r\n    /*\r\n    function getPuzzle(bytes32 otp1, bytes32 otp2, address receiver) view public returns(bytes32 puzzle) {\r\n        return keccak256(msg.sender,receiver,otp1,otp2);\r\n    }\r\n        */\r\n    \r\n}",
  "sourcePath": "/mnt/hgfs/Ethereum/Challenges/Remittance/contracts/Remittance.sol",
  "compiler": {
    "name": "solc",
    "version": "0.4.24+commit.e67f0147.Emscripten.clang"
  },
  "schemaVersion": "2.0.1",
  "updatedAt": "2018-07-07T08:25:19.629Z"
}