{
  "contractName": "Remittance",
  "abi": [
    {
      "constant": false,
      "inputs": [],
      "name": "unpause",
      "outputs": [],
      "payable": false,
      "stateMutability": "nonpayable",
      "type": "function"
    },
    {
      "constant": true,
      "inputs": [],
      "name": "paused",
      "outputs": [
        {
          "name": "",
          "type": "bool"
        }
      ],
      "payable": false,
      "stateMutability": "view",
      "type": "function"
    },
    {
      "constant": true,
      "inputs": [
        {
          "name": "",
          "type": "bytes32"
        }
      ],
      "name": "transactions",
      "outputs": [
        {
          "name": "ethFunds",
          "type": "uint256"
        },
        {
          "name": "sender",
          "type": "address"
        },
        {
          "name": "receiver",
          "type": "address"
        },
        {
          "name": "expiresOn",
          "type": "uint256"
        },
        {
          "name": "processed",
          "type": "bool"
        }
      ],
      "payable": false,
      "stateMutability": "view",
      "type": "function"
    },
    {
      "constant": false,
      "inputs": [],
      "name": "renounceOwnership",
      "outputs": [],
      "payable": false,
      "stateMutability": "nonpayable",
      "type": "function"
    },
    {
      "constant": false,
      "inputs": [],
      "name": "pause",
      "outputs": [],
      "payable": false,
      "stateMutability": "nonpayable",
      "type": "function"
    },
    {
      "constant": true,
      "inputs": [],
      "name": "owner",
      "outputs": [
        {
          "name": "",
          "type": "address"
        }
      ],
      "payable": false,
      "stateMutability": "view",
      "type": "function"
    },
    {
      "constant": false,
      "inputs": [
        {
          "name": "_newOwner",
          "type": "address"
        }
      ],
      "name": "transferOwnership",
      "outputs": [],
      "payable": false,
      "stateMutability": "nonpayable",
      "type": "function"
    },
    {
      "inputs": [],
      "payable": false,
      "stateMutability": "nonpayable",
      "type": "constructor"
    },
    {
      "anonymous": false,
      "inputs": [
        {
          "indexed": false,
          "name": "transKey",
          "type": "bytes32"
        },
        {
          "indexed": true,
          "name": "initiator",
          "type": "address"
        },
        {
          "indexed": true,
          "name": "receiver",
          "type": "address"
        },
        {
          "indexed": false,
          "name": "amount",
          "type": "uint256"
        },
        {
          "indexed": false,
          "name": "expireson",
          "type": "uint256"
        }
      ],
      "name": "LogSendRemitance",
      "type": "event"
    },
    {
      "anonymous": false,
      "inputs": [
        {
          "indexed": true,
          "name": "initiator",
          "type": "address"
        },
        {
          "indexed": false,
          "name": "amount",
          "type": "uint256"
        }
      ],
      "name": "LogClaimRemittance",
      "type": "event"
    },
    {
      "anonymous": false,
      "inputs": [
        {
          "indexed": true,
          "name": "initiator",
          "type": "address"
        },
        {
          "indexed": false,
          "name": "amount",
          "type": "uint256"
        },
        {
          "indexed": false,
          "name": "expiresOn",
          "type": "uint256"
        }
      ],
      "name": "LogClaimRturns",
      "type": "event"
    },
    {
      "anonymous": false,
      "inputs": [],
      "name": "Pause",
      "type": "event"
    },
    {
      "anonymous": false,
      "inputs": [],
      "name": "Unpause",
      "type": "event"
    },
    {
      "anonymous": false,
      "inputs": [
        {
          "indexed": true,
          "name": "previousOwner",
          "type": "address"
        }
      ],
      "name": "OwnershipRenounced",
      "type": "event"
    },
    {
      "anonymous": false,
      "inputs": [
        {
          "indexed": true,
          "name": "previousOwner",
          "type": "address"
        },
        {
          "indexed": true,
          "name": "newOwner",
          "type": "address"
        }
      ],
      "name": "OwnershipTransferred",
      "type": "event"
    },
    {
      "constant": false,
      "inputs": [
        {
          "name": "transKey",
          "type": "bytes32"
        },
        {
          "name": "receiver",
          "type": "address"
        }
      ],
      "name": "sendRemitance",
      "outputs": [
        {
          "name": "success",
          "type": "bool"
        }
      ],
      "payable": true,
      "stateMutability": "payable",
      "type": "function"
    },
    {
      "constant": false,
      "inputs": [
        {
          "name": "otp1",
          "type": "bytes32"
        },
        {
          "name": "otp2",
          "type": "bytes32"
        },
        {
          "name": "payID",
          "type": "bytes32"
        }
      ],
      "name": "claimRemittance",
      "outputs": [
        {
          "name": "success",
          "type": "bool"
        }
      ],
      "payable": false,
      "stateMutability": "nonpayable",
      "type": "function"
    },
    {
      "constant": false,
      "inputs": [
        {
          "name": "otp1",
          "type": "bytes32"
        },
        {
          "name": "otp2",
          "type": "bytes32"
        },
        {
          "name": "payID",
          "type": "bytes32"
        }
      ],
      "name": "claimReturns",
      "outputs": [
        {
          "name": "success",
          "type": "bool"
        }
      ],
      "payable": false,
      "stateMutability": "nonpayable",
      "type": "function"
    },
    {
      "constant": true,
      "inputs": [
        {
          "name": "receiver",
          "type": "address"
        },
        {
          "name": "otp1",
          "type": "bytes32"
        },
        {
          "name": "otp2",
          "type": "bytes32"
        },
        {
          "name": "payID",
          "type": "bytes32"
        }
      ],
      "name": "hashHelper",
      "outputs": [
        {
          "name": "puzzle",
          "type": "bytes32"
        }
      ],
      "payable": false,
      "stateMutability": "pure",
      "type": "function"
    }
  ],
  "bytecode": "0x608060405260008060146101000a81548160ff02191690831515021790555034801561002a57600080fd5b50336000806101000a81548173ffffffffffffffffffffffffffffffffffffffff021916908373ffffffffffffffffffffffffffffffffffffffff1602179055506116fa8061007a6000396000f3006080604052600436106100af576000357c0100000000000000000000000000000000000000000000000000000000900463ffffffff1680633bddab07146100b45780633f4ba83a1461013d5780635c975abb14610154578063642f2eaf146101835780636fe4841014610240578063715018a6146102a55780638456cb59146102bc57806387da1b8f146102d35780638da5cb5b14610338578063d2c18a771461038f578063f2fde38b146103eb575b600080fd5b3480156100c057600080fd5b5061011f600480360381019080803573ffffffffffffffffffffffffffffffffffffffff16906020019092919080356000191690602001909291908035600019169060200190929190803560001916906020019092919050505061042e565b60405180826000191660001916815260200191505060405180910390f35b34801561014957600080fd5b50610152610527565b005b34801561016057600080fd5b506101696105e5565b604051808215151515815260200191505060405180910390f35b34801561018f57600080fd5b506101b260048036038101908080356000191690602001909291905050506105f8565b604051808681526020018573ffffffffffffffffffffffffffffffffffffffff1673ffffffffffffffffffffffffffffffffffffffff1681526020018473ffffffffffffffffffffffffffffffffffffffff1673ffffffffffffffffffffffffffffffffffffffff168152602001838152602001821515151581526020019550505050505060405180910390f35b34801561024c57600080fd5b5061028b60048036038101908080356000191690602001909291908035600019169060200190929190803560001916906020019092919050505061067b565b604051808215151515815260200191505060405180910390f35b3480156102b157600080fd5b506102ba610aba565b005b3480156102c857600080fd5b506102d1610bbc565b005b3480156102df57600080fd5b5061031e600480360381019080803560001916906020019092919080356000191690602001909291908035600019169060200190929190505050610c7c565b604051808215151515815260200191505060405180910390f35b34801561034457600080fd5b5061034d6110e9565b604051808273ffffffffffffffffffffffffffffffffffffffff1673ffffffffffffffffffffffffffffffffffffffff16815260200191505060405180910390f35b6103d16004803603810190808035600019169060200190929190803573ffffffffffffffffffffffffffffffffffffffff16906020019092919050505061110e565b604051808215151515815260200191505060405180910390f35b3480156103f757600080fd5b5061042c600480360381019080803573ffffffffffffffffffffffffffffffffffffffff16906020019092919050505061156d565b005b600084848484604051602001808573ffffffffffffffffffffffffffffffffffffffff1673ffffffffffffffffffffffffffffffffffffffff166c010000000000000000000000000281526014018460001916600019168152602001836000191660001916815260200182600019166000191681526020019450505050506040516020818303038152906040526040518082805190602001908083835b6020831015156104f057805182526020820191506020810190506020830392506104cb565b6001836020036101000a03801982511681845116808217855250505050505090500191505060405180910390209050949350505050565b6000809054906101000a900473ffffffffffffffffffffffffffffffffffffffff1673ffffffffffffffffffffffffffffffffffffffff163373ffffffffffffffffffffffffffffffffffffffff1614151561058257600080fd5b600060149054906101000a900460ff16151561059d57600080fd5b60008060146101000a81548160ff0219169083151502179055507f7805862f689e2f13df9f062ff482ad3ad112aca9e0847911ed832e158c525b3360405160405180910390a1565b600060149054906101000a900460ff1681565b60016020528060005260406000206000915090508060000154908060010160009054906101000a900473ffffffffffffffffffffffffffffffffffffffff16908060020160009054906101000a900473ffffffffffffffffffffffffffffffffffffffff16908060030154908060040160009054906101000a900460ff16905085565b600080600080600060149054906101000a900460ff1615151561069d57600080fd5b6106a93388888861042e565b92503373ffffffffffffffffffffffffffffffffffffffff1660016000856000191660001916815260200190815260200160002060010160009054906101000a900473ffffffffffffffffffffffffffffffffffffffff1673ffffffffffffffffffffffffffffffffffffffff1614151561078c576040517f08c379a00000000000000000000000000000000000000000000000000000000081526004018080602001828103825260208152602001807f5b45523230365d20496e76616c6964206164647265737320726563656976656481525060200191505060405180910390fd5b60016000846000191660001916815260200190815260200160002060040160009054906101000a900460ff161515610852576040517f08c379a00000000000000000000000000000000000000000000000000000000081526004018080602001828103825260248152602001807f5b45523230375d205472616e73616374696f6e20697320756e6465722070726f81526020017f636573730000000000000000000000000000000000000000000000000000000081525060400191505060405180910390fd5b60006001600085600019166000191681526020019081526020016000206000015411151561090e576040517f08c379a00000000000000000000000000000000000000000000000000000000081526004018080602001828103825260248152602001807f5b45523230345d20496e76616c6964205472616e73616374696f6e205265636581526020017f697665720000000000000000000000000000000000000000000000000000000081525060400191505060405180910390fd5b6241eb00420191508160016000856000191660001916815260200190815260200160002060030154101515156109ac576040517f08c379a000000000000000000000000000000000000000000000000000000000815260040180806020018281038252601a8152602001807f5472616e73616374696f6e206973206e6f74206578706972656400000000000081525060200191505060405180910390fd5b6001600084600019166000191681526020019081526020016000206000015490506000600160008560001916600019168152602001908152602001600020600001819055503373ffffffffffffffffffffffffffffffffffffffff167f2e9998a46a940b97f1a3224fb029dcbaf3034133ecf899af2730eb21fd1b48a18260016000876000191660001916815260200190815260200160002060030154604051808381526020018281526020019250505060405180910390a23373ffffffffffffffffffffffffffffffffffffffff166108fc829081150290604051600060405180830381858888f19350505050158015610aab573d6000803e3d6000fd5b50600193505050509392505050565b6000809054906101000a900473ffffffffffffffffffffffffffffffffffffffff1673ffffffffffffffffffffffffffffffffffffffff163373ffffffffffffffffffffffffffffffffffffffff16141515610b1557600080fd5b6000809054906101000a900473ffffffffffffffffffffffffffffffffffffffff1673ffffffffffffffffffffffffffffffffffffffff167ff8df31144d9c2f0f6b59d69b8b98abd5459d07f2742c4df920b25aae33c6482060405160405180910390a260008060006101000a81548173ffffffffffffffffffffffffffffffffffffffff021916908373ffffffffffffffffffffffffffffffffffffffff160217905550565b6000809054906101000a900473ffffffffffffffffffffffffffffffffffffffff1673ffffffffffffffffffffffffffffffffffffffff163373ffffffffffffffffffffffffffffffffffffffff16141515610c1757600080fd5b600060149054906101000a900460ff16151515610c3357600080fd5b6001600060146101000a81548160ff0219169083151502179055507f6985a02210a168e66602d3235cb6db0e70f92b3ba4d376a33c0f3d9434bff62560405160405180910390a1565b600080600080600060149054906101000a900460ff16151515610c9e57600080fd5b610caa3388888861042e565b92503373ffffffffffffffffffffffffffffffffffffffff1660016000856000191660001916815260200190815260200160002060020160009054906101000a900473ffffffffffffffffffffffffffffffffffffffff1673ffffffffffffffffffffffffffffffffffffffff16141515610db3576040517f08c379a00000000000000000000000000000000000000000000000000000000081526004018080602001828103825260248152602001807f5b45523230345d20496e76616c6964205472616e73616374696f6e205265636581526020017f697665720000000000000000000000000000000000000000000000000000000081525060400191505060405180910390fd5b600060016000856000191660001916815260200190815260200160002060000154111515610e6f576040517f08c379a00000000000000000000000000000000000000000000000000000000081526004018080602001828103825260248152602001807f5b45523230345d20496e76616c6964205472616e73616374696f6e205265636581526020017f697665720000000000000000000000000000000000000000000000000000000081525060400191505060405180910390fd5b60016000846000191660001916815260200190815260200160002060040160009054906101000a900460ff16151515610f10576040517f08c379a000000000000000000000000000000000000000000000000000000000815260040180806020018281038252601a8152602001807f5b45523230345d20496e766c6961642054726e73616374696f6e00000000000081525060200191505060405180910390fd5b6241eb00420191508160016000856000191660001916815260200190815260200160002060030154101515610fad576040517f08c379a000000000000000000000000000000000000000000000000000000000815260040180806020018281038252601b8152602001807f5b45523231305d205472616e73616374696f6e2065787069726564000000000081525060200191505060405180910390fd5b6001600084600019166000191681526020019081526020016000206000015490506001806000856000191660001916815260200190815260200160002060040160006101000a81548160ff0219169083151502179055506000600160008560001916600019168152602001908152602001600020600001819055503373ffffffffffffffffffffffffffffffffffffffff167f012c361359d52d5c7626a19fd8bb75404e5562e3cf818f3ef44fa415784d03fa600160008660001916600019168152602001908152602001600020600001546040518082815260200191505060405180910390a23373ffffffffffffffffffffffffffffffffffffffff166108fc829081150290604051600060405180830381858888f193505050501580156110da573d6000803e3d6000fd5b50600193505050509392505050565b6000809054906101000a900473ffffffffffffffffffffffffffffffffffffffff1681565b600080600060149054906101000a900460ff1615151561112d57600080fd5b6000341115156111a5576040517f08c379a000000000000000000000000000000000000000000000000000000000815260040180806020018281038252601b8152602001807f5b45523230315d20496e766c6169642045746865722076616c7565000000000081525060200191505060405180910390fd5b8273ffffffffffffffffffffffffffffffffffffffff163373ffffffffffffffffffffffffffffffffffffffff161415151561126f576040517f08c379a00000000000000000000000000000000000000000000000000000000081526004018080602001828103825260288152602001807f5b45523230335d2052656d69747465722063616e206e6f74206265207468652081526020017f726563656976657200000000000000000000000000000000000000000000000081525060400191505060405180910390fd5b600060016000866000191660001916815260200190815260200160002060000154141515611305576040517f08c379a000000000000000000000000000000000000000000000000000000000815260040180806020018281038252601b8152602001807f5b45523230325d20496e76616c6964207472616e73616374696f6e000000000081525060200191505060405180910390fd5b60016000856000191660001916815260200190815260200160002060040160009054906101000a900460ff161515156113a6576040517f08c379a000000000000000000000000000000000000000000000000000000000815260040180806020018281038252601a8152602001807f5b45523230345d20496e766c6961642054726e73616374696f6e00000000000081525060200191505060405180910390fd5b6241eb004201905060a0604051908101604052803481526020013373ffffffffffffffffffffffffffffffffffffffff1681526020018473ffffffffffffffffffffffffffffffffffffffff168152602001828152602001600015158152506001600086600019166000191681526020019081526020016000206000820151816000015560208201518160010160006101000a81548173ffffffffffffffffffffffffffffffffffffffff021916908373ffffffffffffffffffffffffffffffffffffffff16021790555060408201518160020160006101000a81548173ffffffffffffffffffffffffffffffffffffffff021916908373ffffffffffffffffffffffffffffffffffffffff1602179055506060820151816003015560808201518160040160006101000a81548160ff0219169083151502179055509050508273ffffffffffffffffffffffffffffffffffffffff163373ffffffffffffffffffffffffffffffffffffffff167f8055dbe06b8161c2bc952a9ea2cb50fb338c2ded61520b28a74f9f2557e054a5863485604051808460001916600019168152602001838152602001828152602001935050505060405180910390a3600191505092915050565b6000809054906101000a900473ffffffffffffffffffffffffffffffffffffffff1673ffffffffffffffffffffffffffffffffffffffff163373ffffffffffffffffffffffffffffffffffffffff161415156115c857600080fd5b6115d1816115d4565b50565b600073ffffffffffffffffffffffffffffffffffffffff168173ffffffffffffffffffffffffffffffffffffffff161415151561161057600080fd5b8073ffffffffffffffffffffffffffffffffffffffff166000809054906101000a900473ffffffffffffffffffffffffffffffffffffffff1673ffffffffffffffffffffffffffffffffffffffff167f8be0079c531659141344cd1fd0a4f28419497f9722a3daafe3b4186f6b6457e060405160405180910390a3806000806101000a81548173ffffffffffffffffffffffffffffffffffffffff021916908373ffffffffffffffffffffffffffffffffffffffff160217905550505600a165627a7a7230582070f1a73a98fd86ebe5ed6de4ff1012f6672e589228157d3fb076ea105941b4140029",
  "source": "pragma solidity ^0.4.23;\r\n\r\nimport \"zeppelin-solidity/contracts/math/SafeMath.sol\";\r\nimport \"zeppelin-solidity/contracts/lifecycle/Pausable.sol\";\r\n\r\n/** Note: Required in Remix\r\nimport \"github.com/OpenZeppelin/zeppelin-solidity/contracts/math/SafeMath.sol\"; \r\nimport \"github.com/OpenZeppelin/zeppelin-solidity/contracts/lifecycle/Pausable.sol\"; \r\n */\r\n\r\n/**\r\n * @title Contract for exchanging transactions from ether to \r\n *        local currency.\r\n **/\r\ncontract Remittance is Pausable {\r\n    using SafeMath for uint256;\r\n    \r\n    event LogSendRemitance(bytes32 transKey, address indexed initiator, address indexed receiver, uint amount, uint expireson);\r\n    event LogClaimRemittance(address indexed initiator, uint amount );\r\n    event LogClaimRturns(address indexed initiator, uint amount, uint expiresOn );\r\n\r\n    \r\n    struct Transaction{\r\n        uint ethFunds; // Ether funds        \r\n        address sender; // sender address\r\n        address receiver; // receiver address\r\n        uint expiresOn; // expires on\r\n        bool processed;                \r\n    }\r\n    \r\n    mapping(bytes32 => Transaction ) public transactions;\r\n    \r\n    /**\r\n     * Constructor for instantiating the contract\r\n     */\r\n    constructor() public{        \r\n    }\r\n    \r\n    /**\r\n     * @dev Function for creating a remittance ccontract\r\n     * @param transKey  transKey which will be genrated off-chain by calling hashHelper() function\r\n     * @param receiver  Address of the receiver     \r\n     */\r\n    function sendRemitance(bytes32 transKey, address receiver) payable public whenNotPaused returns(bool success){\r\n        require(msg.value > 0, \"[ER201] Invlaid Ether value\");\r\n        require(msg.sender != receiver, \"[ER203] Remitter can not be the receiver\");        \r\n        require(transactions[transKey].ethFunds == 0, \"[ER202] Invalid transaction\"); // same password already used\r\n        require(!transactions[transKey].processed,\"[ER204] Invliad Trnsaction\");\r\n        uint expiresOn = block.timestamp + 50 days; // Transaction is valid till 50 days\r\n        transactions[transKey] = Transaction( msg.value, msg.sender, receiver, expiresOn, false);\r\n        emit LogSendRemitance(transKey,msg.sender, receiver,msg.value,expiresOn);\r\n        return true;\r\n    }\r\n    \r\n    /**\r\n     * @dev Procedure for claiming remittance\r\n     * @param otp1 First OTP exchange with the receiver / Bob\r\n     * @param otp2 Seconf OTP exchanged with the exchange house / Carol\r\n     * @param payID Payment ID OR Voucher number\r\n     * @return success true in-case of successfull registration of the transaction\r\n     **/\r\n    function claimRemittance(bytes32 otp1, bytes32 otp2, bytes32 payID ) public whenNotPaused returns(bool success){        \r\n        bytes32 transKey = hashHelper(msg.sender,otp1, otp2, payID);\r\n        require(transactions[transKey].receiver == msg.sender, \"[ER204] Invalid Transaction Receiver\");\r\n        require(transactions[transKey].ethFunds > 0, \"[ER204] Invalid Transaction Receiver\");\r\n        require(!transactions[transKey].processed,\"[ER204] Invliad Trnsaction\");        \r\n        uint expiresOn = block.timestamp + 50 days; \r\n        require(transactions[transKey].expiresOn < expiresOn,\"[ER210] Transaction expired\");\r\n        uint fundsToTransfer = transactions[transKey].ethFunds;\r\n        transactions[transKey].processed = true;\r\n        transactions[transKey].ethFunds = 0;\r\n        emit LogClaimRemittance(msg.sender, transactions[transKey].ethFunds);        \r\n        msg.sender.transfer(fundsToTransfer);                  \r\n        return true;\r\n    }\r\n    \r\n    \r\n    /**\r\n     * @dev Procedure for returning funds to the sende in-case it is expired\r\n     * @param otp1 First OTP exchange with the receiver / Bob\r\n     * @param otp2 Seconf OTP exchanged with the exchange house / Carol\r\n     * @param payID Payment ID OR Voucher number\r\n     * @return success true in-case of successfull registration of the transaction\r\n     **/\r\n    function claimReturns(bytes32 otp1, bytes32 otp2, bytes32 payID) public whenNotPaused returns(bool success){\r\n        bytes32 transKey = hashHelper(msg.sender,otp1, otp2, payID);\r\n        require(transactions[transKey].sender == msg.sender, \"[ER206] Invalid address received\");\r\n        require(transactions[transKey].processed,\"[ER207] Transaction is under process\");\r\n        require(transactions[transKey].ethFunds > 0, \"[ER204] Invalid Transaction Receiver\");\r\n        uint expiresOn = block.timestamp + 50 days; // Transaction is valid till 50 days\r\n        require(transactions[transKey].expiresOn >= expiresOn,\"Transaction is not expired\");\r\n        uint fundsTransmit = transactions[transKey].ethFunds;\r\n        transactions[transKey].ethFunds = 0;\r\n        emit LogClaimRturns(msg.sender, fundsTransmit, transactions[transKey].expiresOn );\r\n        msg.sender.transfer(fundsTransmit);                  \r\n        return true;\r\n    }\r\n    \r\n    /**\r\n     * Function for encoding puzzle sent\r\n     * @param receiver Receiver address\r\n     * @param otp1 First OTP exchange with the receiver / Bob\r\n     * @param otp2 Seconf OTP exchanged with the exchange house / Carol\r\n     * @param payID Payment ID OR Voucher number\r\n     * @return success true in-case of successfull registration of the transaction\r\n     **/\r\n    function hashHelper(address receiver, bytes32 otp1, bytes32 otp2, bytes32 payID) public pure returns(bytes32 puzzle){\r\n        return keccak256(abi.encodePacked(receiver,otp1, otp2, payID));\r\n    }\r\n    \r\n    \r\n}",
  "sourcePath": "/mnt/hgfs/Ethereum/Challenges/Remittance/contracts/Remittance.sol",
  "compiler": {
    "name": "solc",
    "version": "0.4.24+commit.e67f0147.Emscripten.clang"
  },
  "schemaVersion": "2.0.1",
  "updatedAt": "2018-07-14T10:04:48.100Z"
}